:020000040000FA
:020000001628C0
:100008007E1480312000111C0A280B281428111096
:100018000B309700DC3096000130F0070030F13DDE
:100028007E1009001728EA308400813085002030CE
:100038008600003087004D30823180228031373091
:10004800840082308500A030860000308700173099
:10005800823180228031F001F101F201F301F401D3
:10006800F5017E10200038285B302100990002300D
:100078008C0020008C013F309805303098040B30FC
:100088009700DC309600210011140B178B17200005
:10009800181482315D22803121009D149D18552845
:1000A800562852281C08F800F9017808F900F801C8
:1000B8007808F4007908F50074081B04F80075083E
:1000C800F9007808F4007908F500C8300032890B87
:1000D8006A2882316A228031003071029630031911
:1000E8007002031C782879284D28F001F101750861
:1000F800803AF80083307802031D84289A3074020D
:10010800031C87288828AF2820000C160C11823180
:100118006A228031F201F3017208303E86008701BD
:1001280001088231762280310130F2070030F33D38
:100138007308803AF80080307802031DA5280F3034
:100148007202031CA828A928902882314E228031E7
:1001580082314E2280317508803AF8008330780267
:10016800031DB8289A3074020318BB28BC28F1284C
:100178007508803AF80083307802031DC5287B3063
:100188007402031CC828C928F12820000C110C1679
:1001980082316A228031F201F30172085E3E8600E4
:1001A800870101088231762280310130F207003060
:1001B800F33D7308803AF80080307802031DE62882
:1001C8000F307202031CE928EA28D1288230F8008F
:1001D800DE30890BED28F80BED287508803AF80019
:1001E80083307802031DFA287B3074020318FD2837
:1001F800FE2832297508803AF80083307802031DFA
:1002080007295C307402031C0A290B2932292000B3
:100218000C110C1682316A228031F201F301720846
:100228004F3E8600870101088231762280310130F5
:10023800F2070030F33D7308803AF8008030780206
:10024800031D28290F307202031C2B292C2913297E
:1002580082314E22803182314E2280317508803AB7
:10026800F80083307802031D3B295C3074020318C0
:100278003E293F2973297508803AF80083307802AF
:10028800031D482933307402031C4B294C29732958
:1002980020000C110C1682316A228031F201F30120
:1002A8007208403E8600870101088231762280313B
:1002B8000130F2070030F33D7308803AF8008030CF
:1002C8007802031D69290F307202031C6C296D29FD
:1002D800542982314E22803182314E228031750874
:1002E800803AF80083307802031D7C293D3074027F
:1002F80003187F298029B4297508803AF8008330CB
:100308007802031D89291F307402031C8C298D294A
:10031800B42920000C110C1682316A228031F201B6
:10032800F3017208203E8600870101088231762297
:1003380080310130F2070030F33D7308803AF8004D
:1003480080307802031DAA290F307202031CAD29E0
:10035800AE29952982314E22803182314E22803158
:100368007508803AF80083307802031DBD291F30D4
:1003780074020318C029C1294D2820000C150C123D
:1003880082316A228031F201F3017208A03E8600B0
:10039800870101088231762280310130F20700306E
:1003A800F33D7308803AF80080307802031DDE2997
:1003B80015307202031CE129E229C92982314E2233
:1003C800803182314E2280314D28162842346134E2
:1003D8007434743465347234693465342034323496
:1003E8003034253420340D3425340034423461341B
:1003F8007434743465347234693465342034313477
:1004080030343034253420340D34003442346134EF
:100418007434743465347234693465342034343453
:100428003034253420340D3400344234613474348B
:100438007434653472346934653420343634303475
:10044800253420340D340034423461347434743427
:1004580065347234693465342034383430342534A2
:1004680020340D3400344D34613469346E347434BE
:1004780065346E3461346E346334653420347234D8
:1004880065347134753469347334653420340D340B
:1004980025340034F601F701FF30F607FF30F73D49
:1004A800760A031D5B2A770A031D5B2A5C2A502AF9
:1004B8000800053021009D0080309E009F01023019
:1004C80023008C00803021009500080021000C14C6
:1004D800203023009E0090309D0000309C000C309E
:1004E8009B000800F6002000111E7B2A7C2A772A30
:1004F800760823009A000800FE0012001E00FE0B7A
:04050800812A003410
:020000040001F9
:02000E00A43F0D
:00000001FF
